:1000000096C0B0C0AFC0AEC0ADC0ACC0ABC0AAC09F
:10001000A9C0A8C0A6C2A6C0A5C0D3C2E3C2A2C040
:10002000A1C0A0C076C3A1C39DC09CC09BC09AC004
:1000300099C098C000407A10F35A00A0724E180977
:100040000010A5D4E80000E87648170000E40B543F
:10005000020000CA9A3B000000E1F505000080960E
:100060009800000040420F000000A0860100000040
:10007000102700000000E8030000000064000000FA
:1000800000000A00000000000100000000002C76C3
:10009000D888DC674F0823DFC1DFAE59E1B1B796DE
:1000A000E5E3E453C63AE651997696E8E6C284263B
:1000B000EB898C9B62ED407C6FFCEFBC9C9F40F217
:1000C000BAA56FA5F490055A2AF75C936B6CF96793
:1000D0006DC11BFCE0E40D47FEF520E6B500D0ED58
:1000E000902E0300943577050080841E08000020C0
:1000F0004E0A000000C80C333333330F986E12835E
:100100001141EF8D2114893BE65516CFFEE6DB1831
:10011000D1844B381BF77C1D901DA4BBE4242032F6
:1001200084725E228100C9F124ECA1E53D271124EF
:100130001FBECFEFD4E0DEBFCDBF12E0A0E0B1E044
:10014000E4EEF2E102C005900D92AE31B107D9F7AD
:1001500012E0AEE1B2E001C01D92AD36B107E1F7A9
:1001600069D2BEC84DCF1092B90080E28093B8002A
:100170000895982F84EA8093BC008091BC0087FF8B
:10018000FCCF8091B900887F883021F0803111F058
:1001900081E008959093BB0084E88093BC00809137
:1001A000BC0087FFFCCF9091B900987F983111F483
:1001B00080E0089580E0903409F081E00895982F60
:1001C00044EA34E824E94093BC008091BC0087FFF6
:1001D000FCCF8091B900887F883011F0803199F789
:1001E0009093BB003093BC008091BC0087FFFCCF94
:1001F0008091B900887F803211F0883539F42093DE
:10020000BC008091BC0084FDFCCFDDCF0895B1DF40
:10021000089584E98093BC008091BC0084FDFCCFEC
:1002200008958093BB0084E88093BC008091BC005B
:1002300087FFFCCF8091B90090E0887F883209F079
:1002400091E0892F089584EC8093BC008091BC00DC
:1002500087FFFCCF8091BB00089584E88093BC00A9
:100260008091BC0087FFFCCF8091BB0008951F9355
:10027000182F80E47EDF812FD4DF84E98093BC00D7
:100280008091BC0084FDFCCF1F91089581E471DF53
:1002900084E88093BC008091BC0087FFFCCF9091E4
:1002A000BB0084E98093BC008091BC0084FDFCCF3E
:1002B000892F089580916B02846080936B02D7DF51
:1002C00000C080916B028B7F80936B02D0DF08951A
:1002D0001F9390916B02882319F0892F816002C0CF
:1002E000892F8E7F80936B02C2DF80916B028260C8
:1002F00080936B02BCDFCADF8F7080936B02B7DF25
:1003000080916B02846080936B02B1DF00C0BEDF1E
:1003100020916902922F24FD02C010E001C010E17B
:1003200095FD106296FD106427FD10688B7F809309
:100330006B029DDF00C080916B02846080936B0232
:1003400096DF00C0A3DF20916902922F24FD116087
:1003500095FD126096FD146027FD18608B7F8093D9
:100360006B0285DF812F1F91089580E0B1DF87FD4B
:10037000FCCF84E090E00197F1F780E0A9DF0895D9
:10038000F4DF90E008951F93182F80916B0266238D
:1003900011F0816001C08E7F80936B0268DF8091D5
:1003A0006B028D7F80936B0262DF70DF8F708093B2
:1003B0006B025DDF80916B028F7080936B0257DF61
:1003C00017FF05C080916B02806880936B0216FF57
:1003D00005C080916B02806480936B0215FF05C09D
:1003E00080916B02806280936B0214FF05C0809144
:1003F0006B02806180936B0280916B0238DF5ADF61
:1004000080916B028F7080936B0231DF13FF05C008
:1004100080916B02806880936B0212FF05C080910F
:100420006B02806480936B0211FF05C080916B02A8
:10043000806280936B0210FF05C080916B02806127
:1004400080936B0280916B0212DF34DF80916B022C
:10045000806F80936B020BDF1F9108951F93182FFD
:1004600084DF812F61E08FDF1F9108951F93182F84
:100470007CDF812F60E087DF1F91089582E0F6DF47
:10048000089581E0F3DF0895FF920F931F93F82EF4
:100490008FEFEDDE80E09DE70197F1F780916B0231
:1004A000806280936B02E3DE80916B0280618093B7
:1004B0006B02DDDEFFDE80E097E20197F1F7FADE06
:1004C00000E810E0C8010197F1F7F4DEC8010197D8
:1004D000F1F780916B028F7E80936B02C8DEEADEBB
:1004E000C8010197F1F788E2C1DF88E0BFDFC9DF0B
:1004F00086E0BCDF8F2DBADF1F910F91FF9008952A
:10050000662311F4805801C08054B0DF08951F9312
:10051000182F2BDF1A3041F4803410F080E001C036
:1005200080E48058A3DF03C0812F61E02CDF1F919E
:100530000895CF93DF93EC0101C0E9DFFE0121961E
:1005400084918823D1F7DF91CF910895CF93DF93E2
:10055000EC0101C0DCDF89918823E1F7DF91CF91C5
:1005600008951F920F920FB60F9211248F939F93AD
:1005700080916C028823F1F480911501882369F041
:1005800080918600909187009093200280931F02B3
:1005900010921E02109215010DC08091860090915C
:1005A0008700909322028093210281E080936C0265
:1005B000809315019F918F910F900FBE0F901F9008
:1005C00018951F920F920FB60F9211248F9380915E
:1005D0001E028F5F80931E028F910F900FBE0F90AF
:1005E0001F9018951F920F920FB60F9211242F9300
:1005F0008F939F938091240290912502885E93406F
:1006000050F4809124029091250201969093250246
:100610008093240207C081E0809323021092250278
:10062000109224029F918F912F910F900FBE0F90E7
:100630001F901895CF92DF92EF92FF920F931F9326
:10064000DF93CF93CDB7DEB728970FB6F894DEBF10
:100650000FBECDBF88DD83E390E0B1D08CE014DF26
:1006600092E094BD83E085BD8DE787BD90936E00D9
:1006700081EC8093810081E280936F00789401DFA8
:1006800080E091E063DF6E010894C11CD11C809171
:100690006C028823E1F360911E02E0902102F09049
:1006A000220220911F023091200270E080E090E051
:1006B000CB017727662740E050E0621B730B840B69
:1006C000950B00E010E06E0D7F1D801F911F84D1FF
:1006D0009B01AC0160E074E284EF9AE4D6D045E07F
:1006E00023E08601A6D3C601B7D08AE09FD08091CF
:1006F0002302882359F010922302C3DE8FE091E099
:1007000025DFC60123DF82E191E020DF10926C0239
:10071000BECF1F920F920FB60F9211242F938F937B
:100720009F93EF93FF939091C0002091C600E091BA
:100730006802EF5FEF7180916902E81711F482E0BF
:1007400008C0892F8871E0936802F0E0EA5BFD4FF2
:10075000208380936A02FF91EF919F918F912F9157
:100760000F900FBE0F901F9018951F920F920FB60B
:100770000F9211248F939F93EF93FF9390916602B2
:1007800080916702981769F0E0916702EF5FEF715F
:10079000E0936702F0E0EA5DFD4F80818093C60040
:1007A00005C08091C1008F7D8093C100FF91EF91C2
:1007B0009F918F910F900FBE0F901F9018959C01E5
:1007C00010926602109267021092680210926902FB
:1007D00097FF04C082E08093C0003F773093C5004C
:1007E0002093C40088E98093C10086E08093C20012
:1007F00008959091680280916902981719F420E099
:1008000031E012C0E0916902EF5FEF71E09369029D
:10081000F0E0EA5BFD4F308120916A02922F80E088
:10082000AC01430F511D9A01C9010895282F9091E1
:1008300066029F5F9F71809167029817E1F3E92F2D
:10084000F0E0EA5DFD4F2083909366028091C10045
:1008500080628093C1000895CF93DF93EC0102C0C2
:100860002196E4DF88818823D9F7DF91CF9108951D
:10087000CF93DF93EC0101C0D9DFFE012196849173
:100880008823D1F7DF91CF910895A8E1B0E0EAE4A1
:10089000F4E0A0C269837A838B839C832D833E839B
:1008A0004F835887B9E0EB2EF12CEC0EFD1ECE01E4
:1008B0000196B7010FD28E010F5E1F4FCE01059634
:1008C000B80108D22985223008F47EC03989323037
:1008D00010F4B8017CC08A859A8989278A872430D8
:1008E00011F0223031F4231709F06EC066E171E097
:1008F0006EC0343039F41D861E861F86188A1C8609
:100900001B8604C0323021F484E08987B7015FC0C0
:100910002B853C858B899C89281B390B3C872B8731
:10092000ED84FE840F851889AD88BE88CF88D88C69
:10093000EA14FB040C051D0540F4EE0CFF1C001F1F
:10094000111F215030403C872B8720E030E040E0F1
:1009500050E080E090E0A0E0B0E460E070E0EA14F5
:10096000FB040C051D0540F0282B392B4A2B5B2B73
:10097000EA18FB080C091D09B695A7959795879568
:10098000EE0CFF1C001F111F6F5F7F4F6F31710551
:1009900031F7DA01C9018F779070A070B0708034A0
:1009A0009105A105B10561F427FD0AC0E114F10428
:1009B0000105110529F0205C3F4F4F4F5F4F207814
:1009C0002D873E874F87588BBE01675F7F4FCB01D6
:1009D000ACD06896EAE01AC2A8E0B0E0E1EFF4E03B
:1009E000FAC19B01AC0183E08983DA01C901882740
:1009F000B7FD83959927AA27BB27B82E2115310566
:100A00004105510519F482E0898339C08823A9F092
:100A1000203080E0380780E0480780E8580729F454
:100A200060E070E080E09FEC2EC0EE24FF248701A0
:100A3000E21AF30A040B150B02C079018A018EE158
:100A4000C82ED12CDC82CB82ED82FE820F831887E8
:100A5000C801B7011BD001971816190684F4082E97
:100A600004C0EE0CFF1C001F111F0A94D2F7ED8288
:100A7000FE820F831887C81AD90ADC82CB82BA8219
:100A8000CE01019652D02896E9E0C1C1EF92FF92C3
:100A90000F931F937B018C0180E0E81680E0F8063D
:100AA00081E0080780E0180788F48FEFE816F1046A
:100AB0000105110531F028F088E090E0A0E0B0E0F9
:100AC00017C080E090E0A0E0B0E012C080E0E8163F
:100AD00080E0F80680E0080781E0180728F088E148
:100AE00090E0A0E0B0E004C080E190E0A0E0B0E0E1
:100AF00020E230E040E050E0281B390B4A0B5B0B52
:100B000004C016950795F794E7948A95D2F7F701F4
:100B1000E25EFE4F8081281B310941095109C9015C
:100B20001F910F91FF90EF900895DF92EF92FF9247
:100B30000F931F93FC01E480F58006811781D1801B
:100B40008081823048F480E090E0A0E1B0E0E82AC3
:100B5000F92A0A2B1B2BA5C0843009F49FC08230D0
:100B600021F4EE24FF24870105C0E114F1040105FE
:100B7000110519F4E0E0F0E096C0628173819FEF07
:100B8000623879070CF05BC022E83FEF261B370B79
:100B90002A3131052CF020E030E040E050E02AC05E
:100BA000B801A701022E04C0769567955795479521
:100BB0000A94D2F781E090E0A0E0B0E004C0880F92
:100BC000991FAA1FBB1F2A95D2F70197A109B10946
:100BD0008E219F21A023B1230097A105B10521F00B
:100BE00081E090E0A0E0B0E09A01AB01282B392B26
:100BF0004A2B5B2BDA01C9018F779070A070B0701F
:100C000080349105A105B10539F427FF09C0205CA6
:100C10003F4F4F4F5F4F04C0215C3F4F4F4F5F4FDF
:100C2000E0E0F0E02030A0E03A07A0E04A07A0E4CE
:100C30005A0710F0E1E0F0E079018A0127C060383E
:100C4000710564F5FB01E158FF4FD801C7018F77AB
:100C50009070A070B07080349105A105B10539F491
:100C6000E7FE0DC080E490E0A0E0B0E004C08FE3B8
:100C700090E0A0E0B0E0E80EF91E0A1F1B1F17FF6E
:100C800005C016950795F794E794319687E0169579
:100C90000795F794E7948A95D1F705C0EE24FF24D1
:100CA0008701EFEFF0E06E2F679566276795902F2D
:100CB0009F77D794DD24D7948E2F8695492F462B86
:100CC000582F5D29B701CA011F910F91FF90EF9036
:100CD000DF900895FC01DB01408151812281622F68
:100CE0006F7770E0221F2227221F9381892F880FA0
:100CF000822B282F30E0991F9927991F11969C93DA
:100D0000119721153105A9F54115510561057105A9
:100D100011F482E037C082E89FEF13969C938E9384
:100D200012979A01AB0167E0220F331F441F551F32
:100D30006A95D1F783E08C930DC0220F331F441FB7
:100D4000551F12968D919C911397019713969C9322
:100D50008E931297203080E0380780E0480780E4C7
:100D6000580758F314962D933D934D935C93179722
:100D700008952F3F310579F441155105610571053D
:100D800019F484E08C93089564FF03C081E08C9390
:100D900012C01C9210C02F57304013963C932E93D4
:100DA000129783E08C9387E0440F551F661F771FCF
:100DB0008A95D1F7706414964D935D936D937C93EF
:100DC000179708952F923F924F925F926F927F9262
:100DD0008F929F92AF92BF92CF92DF92EF92FF924B
:100DE0000F931F93CF93DF93CDB7DEB7CA1BDB0BF7
:100DF0000FB6F894DEBF0FBECDBF09942A8839889C
:100E000048885F846E847D848C849B84AA84B984A2
:100E1000C884DF80EE80FD800C811B81AA81B981AE
:100E2000CE0FD11D0FB6F894DEBF0FBECDBFED01C2
:100E30000895EF92FF920F931F93F22FF02E47FD2C
:100E400002C0E4E001C0E4E1242F332727FD309500
:100E500037FF03C0309521953F4F4F2D512F0F2F56
:100E6000EE2E07D08F2D912F1F910F91FF90EF90B5
:100E70000895A9E0B0E0EEE3F7E0A8CF6A01122FF1
:100E8000A02EBE2C2BE3201718F42CE3922E02C0C8
:100E9000902E9394AE014F5F5F4F27E0092D48D10C
:100EA000BC018981E82EFF24C701897090700197E9
:100EB00011F4ADE209C0B1FE02C0ABE205C0B0FC66
:100EC00002C0A0E001C0A0E2E3FE3BC0AA2311F4EF
:100ED00023E001C024E0211710F020E002C0121B23
:100EE000212FEB2CB4FE02C0322F0AC0F601322FA4
:100EF00080E202C0819331503323E1F7C20ED11C4E
:100F0000AA2319F0F601A1936F01F6013196E2FED2
:100F100005C09EE4D6019C9381E404C09EE6D60100
:100F20009C9381E611968C9391833296DF01832FF7
:100F300090E202C09D9381508823E1F7E30FF11DF9
:100F400040C0E2FE42C0AA2311F423E001C024E025
:100F5000211710F020E002C0121B212FEB2CB4FE51
:100F600002C0922F0AC0F601922F80E202C0819344
:100F700091509923E1F7C20ED11CAA2319F0F60172
:100F8000A1936F01F6013196E2FE08C089E4D60113
:100F90008C938EE411968C9386E407C089E6D60183
:100FA0008C938EE611968C9386E681833296DF01D0
:100FB000892F20E202C02D9381508823E1F7E90FA9
:100FC000F11D10822EEF3FEFAFC0161617061CF072
:100FD00041E050E003C0AB014F5F5F4FAA2019F41E
:100FE00080E090E003C08A2D90E0019620E030E0A0
:100FF000AA2311F021E030E0240F351F280F391FFC
:10100000812F90E02817390714F020E002C0121B4E
:10101000212F4B2D50E0CA0180719070B4FC0DC09F
:10102000B3FC0BC0F601322F40E202C041933150B5
:101030003323E1F7C20ED11C01C0322FAA2319F0CD
:10104000F601A1936F01892B11F0132F0AC0F6014D
:10105000132F80E302C0819311501123E1F7C30ED7
:10106000D11C092D060FBA8090E1892E912C8E207B
:101070009F20E4FE04C0F1E3BF1609F401501016EE
:1010800014F001E003C0093008F008E09B0177FF8D
:1010900002C020E030E0CB010196821B930BFE01E1
:1010A0003196E80FF91F8EE2F82E3B01601A7108A5
:1010B0008A2D90E044275527481B590B8FEF2F3F6F
:1010C000380719F4D601FD926D01621773072CF0F1
:1010D0006216730614F4808101C080E32150304011
:1010E00031962417350724F0D6018D936D01E6CF94
:1010F0002617370749F4B5E3BB1528F0BB1621F4D2
:101100008114910409F481E3F6018193D601812FC2
:1011100090E202C09C93815011968823D9F7E10F89
:10112000F11D108220E030E0C9012996EEE06ACE80
:10113000283008F027E03327DA01990F311D87FDA9
:10114000916000966105710539F432602E5F3D9320
:1011500030E32A95E1F708959F3F30F0803871051C
:10116000610509F03C5F3C5F3D93913008F0806879
:10117000911DDF93CF931F930F93FF92EF92192F3F
:10118000987F9695E92F96959695E90FFF27E25758
:10119000FF4F99273327EE24FF24A701E70105908D
:1011A0000894079428F4360FE71EF81E491F511DB6
:1011B000660F771F881F991F0694A1F70590079463
:1011C00028F4E70EF81E491F561FC11D770F881F10
:1011D000991F661F0694A1F70590079428F4F80E4E
:1011E000491F561FC71FD11D880F991F661F771FE4
:1011F0000694A1F70590079420F4490F561FC71FC6
:10120000D81F990F661F771F881F0694A9F784912E
:101210001095177041F0D695C79557954795F79457
:10122000E7941A95C1F7E4E3F0E0689415901591FE
:1012300035916591959105907FE27395E118F10ADA
:10124000430B560BC90BD009C0F7E10CF11E431F2D
:10125000561FC91FD01D7EF4703311F48A95E6CF56
:10126000E894015030F0080F0AF40027021708F440
:10127000202F2395022F7A3328F079E37D932A9546
:10128000E9F710C07D932A9589F60694979567959E
:10129000379517951794E118F10A430B560BC90BB4
:1012A000D00998F023957E9173957A3308F070E316
:1012B0007C932013B8F77E9170617D9330F0839515
:1012C00071E37D9370E32A95E1F71124EF90FF908D
:1012D0000F911F91CF91DF91992787FD90950895E8
:0412E000F894FFCFB0
:1012E400447265687A61686C6D65737365720046F3
:1012F4003D00487A000100000000000000000001E9
:10130400020203030303040404040404040405059F
:101314000505050505050505050505050505060677
:101324000606060606060606060606060606060659
:101334000606060606060606060606060606070747
:101344000707070707070707070707070707070729
:101354000707070707070707070707070707070719
:101364000707070707070707070707070707070709
:1013740007070707070707070707070707070808F7
:1013840008080808080808080808080808080808D9
:1013940008080808080808080808080808080808C9
:1013A40008080808080808080808080808080808B9
:1013B40008080808080808080808080808080808A9
:1013C4000808080808080808080808080808080899
:1013D4000808080808080808080808080808080889
:1013E4000808080808080808080808080808080879
:0E13F40008080808080808080808080808087B
:00000001FF
